:020000040800F2
:10000000A80700208901000835170008BD16000860
:1000100031170008A1020008551B0008000000006D
:100020000000000000000000000000009117000820
:10003000610500080000000039170008DD170008FE
:10004000A3010008A3010008A3010008A301000800
:10005000A3010008A3010008A3010008A3010008F0
:10006000A3010008A3010008A3010008A3010008E0
:10007000A3010008A3010008A3010008A3010008D0
:10008000A3010008A3010008A3010008A3010008C0
:10009000A3010008A3010008A3010008A3010008B0
:1000A000A3010008A3010008A3010008A3010008A0
:1000B000A3010008A3010008A3010008A301000890
:1000C000A3010008A3010008A3010008A301000880
:1000D000A3010008A3010008451B0008A3010008B4
:1000E000A3010008A3010008A301000800F002F822
:1000F00000F03AF80AA090E8000C82448344AAF188
:100100000107DA4501D100F02FF8AFF2090EBAE885
:100110000F0013F0010F18BFFB1A43F0010318473B
:10012000481C0000681C0000103A24BF78C878C141
:10013000FAD8520724BF30C830C144BF04680C60ED
:10014000704700000023002400250026103A28BF35
:1001500078C1FBD8520728BF30C148BF0B60704739
:100160001FB51FBD10B510BD00F058F81146FFF7C0
:10017000F7FF01F0ABFD00F076F803B4FFF7F2FFF4
:1001800003BC00F07DF8000009488047094800479B
:10019000FEE7FEE7FEE7FEE7FEE7FEE7FEE7FEE737
:1001A000FEE7FEE704480549054A064B7047000094
:1001B0004B180008ED000008A8010020A807002047
:1001C000A8030020A80300204FF0000200B513464A
:1001D00094469646203922BFA0E80C50A0E80C5067
:1001E000B1F12001BFF4F7AF090728BFA0E80C5018
:1001F00048BF0CC05DF804EB890028BF40F8042B11
:1002000008BF704748BF20F8022B11F0804F18BF7D
:1002100000F8012B7047704770477047754600F033
:100220002BF8AE4605006946534620F00700854688
:1002300018B020B5FFF7B6FFBDE820404FF000062C
:100240004FF000074FF000084FF0000B21F00701BE
:10025000AC46ACE8C009ACE8C009ACE8C009ACE801
:10026000C0098D46704710B50446AFF300802046A4
:10027000BDE81040FFF781BF0048704744010020EF
:1002800001491820ABBEFEE72600020070470000BF
:1002900002490968C16401490860704710000020E4
:1002A00000BFFEE710B50446012001F0FBFC10BDC5
:1002B00010B50446022001F0F5FC10BD10B5072969
:1002C0000AD1002305E000F1280444F823205C1C37
:1002D000E3B2072BF7DB03E000F1280343F821200A
:1002E00010BD2DE9F04105460C4616461F4650212B
:1002F0002046FFF769FF20222946201D01F054FA0D
:1003000014F8240F20F00F0009302070207820F01E
:10031000F000903020700920A07044F8246C6078C0
:1003200067F30100607054F8240C8047617860F333
:1003300083016170002084F82600243C2046FFF7EA
:10034000A7FF204601F0F9F9BDE8F08170B5044639
:1003500020688047054694F82500C0F38100A84234
:1003600033D094F84A00401CC0B284F84A000228F6
:100370002BDB2434607865F383006070002084F800
:10038000260014F8240900F00F00092805D094F87D
:10039000240000F00F00022806D194F8240020F079
:1003A0000F0084F8240010E094F8240000F00F00FF
:1003B00058B994F8240020F00F00401C84F8240061
:1003C000E06A10B12046E16A884794F8240000F002
:1003D0000F0020B1012832D002287CD17FE094F8B0
:1003E0002500C0F3810094F8251001F00301884234
:1003F00024D1002084F8260094F84B00401CC0B2A1
:1004000084F84B00322819DB94F84800401CC0B235
:1004100084F8480001280ADB002084F84800032003
:1004200084F82600606B10B12046616B884794F811
:100430004B00FF2802D1322084F84B0080E094F872
:10044000260080BB94F849000F281ADC94F8240099
:100450000221B1EB101F14D1022084F82600206B7A
:1004600010B12046216B884714F8240F20F00F00AC
:1004700009302070207820F0F000903004F8240932
:100480002CE00020243484F8250084F8270020780C
:1004900020F00F00801C2070207820F0F000203029
:1004A00004F824091AE0FFE794F82600032815D180
:1004B000A06B10B12046A16B88470020243484F83B
:1004C0002700207820F00F0009302070207820F0DD
:1004D000F000303000E032E004F8240930E014F895
:1004E000490F401C207014F849090F280BDB14F841
:1004F000240F20F00F0009302070207820F0F00049
:10050000903004F8240994F849000F2816DB94F879
:100510002400000990B1002084F84900A06A10B1BD
:100520002046A16A884714F8240F20F00F000930F4
:100530002070207820F0F00004F8240900E000BFCB
:1005400000BF70BD10B50548046803E02046FFF702
:10055000FDFEE46C002CF9D110BD0000100000205D
:10056000704772B600BFFEE70146002291F82100F5
:10057000022808D00420886300BF002081F82000F2
:1005800000BF012070470868006820F00E000B686B
:1005900018600868006820F001000B68186091F886
:1005A000403001209840CB6B5860012081F8210039
:1005B00000BF002081F8200000BF1046E2E70000E5
:1005C00070B50446002594F82100022803D00420C9
:1005D000A063012548E02068006820F00E00216833
:1005E00008602068006820F00100216808601F4949
:1005F0002068884201D1012026E01C49143120687E
:10060000884201D110201FE0184928312068884213
:1006100001D1801518E015493C312068884201D18C
:10062000801411E0114950312068884202D14FF402
:10063000803009E00D4964312068884202D14FF4CE
:10064000801001E04FF080700849083948600120AF
:1006500084F8210000BF002084F8200000BF606BF8
:1006600010B12046616B8847284670BD08000240E3
:1006700070B5044600F0A8F906462546681C10B17E
:1006800004480078054400BF00F09EF9801BA84292
:10069000FAD370BD080000202DE9F8470346002278
:1006A00094466EE14FF0010808FA02F4D1F8008098
:1006B00008EA0400A0427DD1DFF8DCA2D1F8048072
:1006C000A8EB0A09D0453AD014DCB8F1030F50D09A
:1006D00009DCB8F1000F31D0B8F1010F1CD0B8F12E
:1006E000020F49D120E0B8F1110F18D0B8F1120F64
:1006F00042D11EE0B9F5881F25D006DCB9F5803F50
:1007000020D0B9F5801F37D11AE0B9F5001F18D0F5
:10071000B9F5041F30D117E0D1F80CC02DE0D1F8A5
:100720000C8008F1040C28E0D1F80C8008F1080CCA
:1007300023E0D1F80C8008F10C0C1EE000BF00BFD4
:1007400000BF00BF00BF00BFD1F80880B8F1000FA4
:1007500002D14FF0040C0BE0D1F80880B8F1010F82
:1007600003D14FF0080C1C6102E04FF0080C5C61F3
:1007700003E04FF0000C00E000BF00BFFF2801D8ED
:10078000984601E003F104084646FF2802D84FEAE4
:10079000820803E0A2F108084FEA88084746D6F825
:1007A00000804FF00F0909FA07F928EA09080CFA46
:1007B00007F900E088E048EA0908C6F80080D1F8A7
:1007C000048008F08058B8F1805F7DD100BFDFF869
:1007D000CC81D8F8188048F00108DFF8C091C9F83A
:1007E0001880C846D8F8188008F00108CDF80080B5
:1007F00000BF00BF4FEAB9384FEA920958F82950B4
:100800004FEA82784FEA18794FF00F0808FA09F892
:1008100025EA0805DFF88881434502D14FF000083A
:1008200016E0DFF88081434502D14FF001080FE068
:10083000DFF87481434502D14FF0020808E0DFF889
:100840006C81434502D14FF0030801E04FF00408EA
:100850004FEA82794FEA197908FA09F848EA05055A
:10086000DFF84C814FEA920948F82950D1F804800A
:1008700008F48018B8F5801F0AD1DFF83881D8F85D
:10088000008048EA0008DFF82C91C9F8008009E0F0
:10089000DFF82081D8F8008028EA0008DFF81491FA
:1008A000C9F80080D1F8048008F40018B8F5001FDA
:1008B00010D1DFF8008108F10408D8F8008048EA78
:1008C0000008DFF8F09000E05AE009F10409C9F8E7
:1008D00000800DE0DFF8DC8008F10408D8F8008023
:1008E00028EA0008DFF8CC9009F10409C9F8008073
:1008F000D1F8048008F40038B8F5003F0ED1DFF8D5
:10090000B480A8F10408D8F8008048EA0008DFF8AD
:10091000A490A9F10409C9F800800DE0DFF89480E3
:10092000A8F10408D8F8008028EA0008DFF88490CD
:10093000A9F10409C9F80080D1F8048008F48038CE
:10094000B8F5803F0ED1DFF86C80A8F10808D8F820
:10095000008048EA0008DFF85C90A9F10809C9F8AE
:1009600000800DE0DFF84C80A8F10808D8F800807E
:1009700028EA0008DFF83C90A9F10809C9F80080CE
:10098000521CD1F8008028FA02F8B8F1000F7FF469
:1009900089AEBDE8F8870000000011100010024089
:1009A00000080140000C014000100140001401400B
:1009B0000800014008040140024693680B400BB157
:1009C000012000E0002070470148006870470000E7
:1009D00000000020034800680349097808440149E1
:1009E00008607047000000200800002010B508488B
:1009F000006840F0100006490860032000F0A8F8E5
:100A00000F2000F007F800F02BF8002010BD0000C8
:100A10000020024070B504460E4800784FF47A7109
:100A2000B1FBF0F00C490968B1FBF0F5284600F085
:100A3000F9FB08B1012070BD102C07D2002221461D
:100A4000501E00F047F80548046001E00120F2E77D
:100A50000020F0E7080000200C0000200400002027
:100A600008B500BF1148806940F001000F49886156
:100A70000846806900F00100009000BF00BF00BF81
:100A80000846C06940F08050C8610846C06900F05F
:100A90008050009000BF00BF00BF0549486820F0AB
:100AA000E06040F00070486000BF08BD00100240E8
:100AB0000000014001460846002809DB00F01F0342
:100AC00001229A4043099B0003F1E023C3F800216F
:100AD00000BF70472DE9F05F80460D46164600279F
:100AE00001F03AF8074639462A46334601F0070036
:100AF000C0F1070ABAF1040F02D94FF0040A01E06D
:100B0000C0F1070AD14600F1040ABAF1070F02D278
:100B10004FF0000A01E0A0F1030AD4464FF0010AA9
:100B20000AFA09FAAAF1010A0AEA020A0AFA0CFA0E
:100B30004FF0010B0BFA0CFBABF1010B0BEA030BB3
:100B40004AEA0B042146404601F00EF8BDE8F09F4A
:100B500000BF00F00702064B19684FF6FF0319406B
:100B6000044B0B4343EA0221014B196000BF70475D
:100B70000CED00E00000FA0570B504460D460CB916
:100B8000012070BD5A48006800F00700A8420ED24C
:100B90005748006820F00700284355490860084678
:100BA000006800F00700A84201D00120E9E72078A2
:100BB00000F0020002281DD1207800F00400042873
:100BC00005D14C48406840F4E0604A4948602078CC
:100BD00000F00800082805D14648406840F46050FD
:100BE000444948604348406820F0F000A168084349
:100BF00040494860207800F0010078B3606801281F
:100C000006D13C48006800F4003090B90120B8E7F4
:100C10006068022806D13748006800F0007040B9CB
:100C20000120AEE73348006800F0020008B9012057
:100C3000A7E73048406820F00300616808432D4969
:100C40004860FFF7C1FE064609E0FFF7BDFE801BC6
:100C500041F28831884202D9032092E707E0254813
:100C6000406800F00C006168B0EB810FEDD12048C6
:100C7000006800F00700A8420ED91D48006820F067
:100C8000070028431A4908600846006800F007007A
:100C9000A84201D0012074E7207800F00400042865
:100CA00007D11448406820F4E060E1680843114926
:100CB0004860207800F00800082808D10D484068F6
:100CC00020F46050216940EAC1000A49486000F000
:100CD0003FF808494968C1F30311074A515CC8400D
:100CE0000649086006480068FFF794FE002048E7C0
:100CF00000200240001002404E1D00080C000020A1
:100D00000400002001480068704700000C0000202B
:100D100000B5FFF7F7FF04494968C1F30221034A10
:100D2000515CC84000BD0000001002405E1D00087C
:100D300000B5FFF7E7FF04494968C1F3C221034A40
:100D4000515CC84000BD0000001002405E1D00085C
:100D500070B500210022002400230020134D696893
:100D600001F00C05F5B1042D02D0082D19D101E0D8
:100D70000F4819E00F4DC1F38346AB5D01F4803598
:100D800055B10A4D6D68C5F340450B4E725D084D77
:100D90005D43B5FBF2F402E0084D03FB05F4204689
:100DA00002E000BF024800BF00BF70BD001002405B
:100DB00000127A003C1D00084C1D000800093D008F
:100DC000F8B504460CB90120F8BD207800F0010008
:100DD000002878D0F848406800F00C0004280CD0B7
:100DE000F548406800F00C00082811D1F24840682E
:100DF00000F48030B0F5803F0AD1EF48006800F47D
:100E0000003000285FD0606800285CD10120DBE75B
:100E100000BF6068B0F5803F06D1E748006840F445
:100E20008030E549086028E0606858B9E248006809
:100E300020F48030E04908600846006820F48020F3
:100E400008601AE06068B0F5A02F0BD1DA4800689E
:100E500040F48020D84908600846006840F480309B
:100E600008600AE0D448006820F48030D249086065
:100E70000846006820F48020086000BF606888B1E0
:100E8000FFF7A2FD054606E0FFF79EFD401B642824
:100E900001D9032098E7C848006800F40030002812
:100EA000F2D010E0FFF790FD054606E0FFF78CFD5D
:100EB000401B642801D9032086E7BF48006800F47E
:100EC00000300028F2D1207800F00200022857D12B
:100ED000B948406800F00C0050B1B748406800F0D5
:100EE0000C00082818D1B448406800F4803098B944
:100EF000B148006800F0020020B12069012801D04B
:100F0000012061E7AC48006820F0F800616940EA20
:100F1000C100A949086033E02069E8B10120A74970
:100F20000860FFF751FD054606E0FFF74DFD401B49
:100F3000022801D9032047E79F48006800F002001B
:100F40000028F2D09C48006820F0F800616940EA6F
:100F5000C1009949086013E0002098490860FFF734
:100F600033FD054606E0FFF72FFD401B022801D99F
:100F7000032029E79048006800F002000028F2D121
:100F8000207800F0080008282DD1A069B8B1012010
:100F90008B490860FFF718FD054606E0FFF714FDD2
:100FA000401B022801D903200EE78348406A00F065
:100FB00002000028F2D0012000F0C4FB13E0002062
:100FC0007F490860FFF700FD054606E0FFF7FCFCDF
:100FD000401B022801D90320F6E67748406A00F05A
:100FE00002000028F2D1207800F00400042873D118
:100FF00000277148C06900F0805070B900BF6E488A
:10100000C06940F080506C49C8610846C06900F072
:101010008050009000BF00BF01276A48006800F4BC
:101020008070B0B96748006840F480706549086016
:10103000FFF7CAFC054606E0FFF7C6FC401B642824
:1010400001D90320C0E65F48006800F480700028E2
:10105000F2D000BFE068012806D15748006A40F08E
:1010600001005549086227E0E06858B95248006A13
:1010700020F00100504908620846006A20F0040090
:10108000086219E0E06805280BD14B48006A40F07F
:101090000400494908620846006A40F001000862FD
:1010A0000AE04548006A20F001004349086208460A
:1010B000006A20F00400086200BFE068A0B1FFF7FA
:1010C00083FC054609E0FFF77FFC401B41F28831B5
:1010D000884202D9032077E622E03748006A00F010
:1010E00002000028EFD012E0FFF76EFC054608E092
:1010F000FFF76AFC401B41F28831884201D9032086
:1011000062E62D48006A00F002000028F0D1012FAD
:1011100005D12948C06920F080502749C86100BF27
:10112000E069C8B32448406800F00C00082860D08B
:10113000E069022848D1002020490866FFF744FCF6
:10114000054606E0FFF740FC401B022801D90320BA
:101150003AE61948006800F000700028F2D1206AD1
:10116000B0F5803F07D11448406820F40030A168F2
:10117000084311494860D4E9080108430E49496809
:1011800021F4741108430C49486001200B4908669A
:10119000FFF71AFC054607E03DE0FFF715FC401B92
:1011A000022801D903200FE60348006800F0007010
:1011B0000028F2D02FE00000001002400000424260
:1011C0008004424200700040002014490866FFF786
:1011D000FBFB054606E0FFF7F7FB401B022801D9A1
:1011E0000320F1E50E48006800F000700028F2D1FD
:1011F00011E0E069012800D1E6E50948466806F4F7
:101200008031206A814204D106F47011606A814203
:1012100001D00120D8E50020D6E5000000004242C0
:101220000010024070B504462546681EB0F1807F6C
:1012300001D301200FE0681E4FF0E02148610F212B
:101240004FF0FF3000F090FC00204FF0E02188616B
:1012500007200861002070BD704770472DE9F84FE6
:101260000446206805682068C668206847694FF012
:101270000009CA4605F00F09B9F1000F0AD105F0BF
:10128000200038B106F0200020B1204600F02EFBEF
:10129000BDE8F88FB9F1000F7BD007F0010018B955
:1012A00006F49070002874D005F0010030B106F407
:1012B000807018B1606C40F00100606405F00400BB
:1012C00030B107F0010018B1606C40F002006064BA
:1012D00005F0020030B107F0010018B1606C40F079
:1012E0000400606405F0080048B106F0200010B961
:1012F00007F0010018B1606C40F008006064606C99
:10130000002845D005F0200028B106F0200010B1DB
:10131000204600F0EBFA20684069C0F3801A606C48
:1013200000F0080010B9BAF1000F2CD0204600F0F0
:1013300097FA2068406900F0400000B300BF00BF8A
:101340002168143151E8001F21F040002168143158
:1013500041E80002002AF3D100BFE06B50B17748AA
:10136000E16B4863E06BFFF72BF988B1E06B416BF1
:1013700088470DE02046FFF770FF09E009E02046AE
:10138000FFF76BFF04E02046FFF767FF0020606473
:101390007EE7206B012877D105F01000002873D07C
:1013A00006F010000028FAD000BF0020009020684E
:1013B0000068009020684068009000BF00BF20686F
:1013C000406900F0400000285FD0E06B0068406892
:1013D0001FFA80F8B8F1000F55D0A08D404552DDBE
:1013E000A4F82E80E06B8069202843D000BF00BFA6
:1013F00021680C3151E8001F21F4807021680C3104
:1014000041E80002002AF3D100BF00BF00BF2168FD
:10141000143151E8001F21F001002168143141E826
:101420000002002AF3D100BF00BF00BF21681431C1
:1014300051E8001F21F040002168143141E800020A
:10144000002AF3D100BF202084F84200002020634E
:1014500000BF00BF21680C3151E8001F21F01000CF
:1014600021680C3141E80002002AF3D100BFE06B93
:10147000FFF77AF802206063A08DE28D801A81B2B6
:101480002046FFF7E9FE03E742E0A08DE18D401A18
:101490001FFA80F8E08DD0B3B8F1000F37D000BF4D
:1014A00000BF21680C3151E8001F21F490702168C1
:1014B0000C3141E80002002AF3D100BF00BF00BF99
:1014C0002168143151E8001F21F001002168143116
:1014D00041E80002002AF3D100BF202084F8420036
:1014E0000020206300BF00BF21680C3151E8001FBD
:1014F00021F0100021680C3141E80002002AF3D1EC
:1015000000BF0220606341462046FFF7A5FEBFE60C
:1015100005F0800030B106F0800018B1204600F0E0
:10152000E1FAB5E605F0400030B106F0400018B130
:10153000204600F0CBF9ABE600BFA9E64D18000845
:1015400010B504460CB9012010BDA06900B100E03F
:1015500000BF94F8410028B9002084F840002046DC
:1015600000F02AF8242084F841002068C06820F4A4
:1015700000502168C860204600F036FA20680069F3
:1015800020F49040216808612068406920F02A001A
:10159000216848612068C06840F400502168C86034
:1015A00000206064202084F8410084F8420000207C
:1015B000606300BFC8E7000010B586B00446002095
:1015C00002900390049005903749206888422FD1FB
:1015D00000BF3648806940F480403449886108463D
:1015E000806900F48040019000BF00BF00BF084642
:1015F000806940F0040088610846806900F00400BA
:10160000019000BF00BF4815029002200390032004
:10161000059002A92648FFF73FF84FF4806002903A
:1016200000200390049002A92148FFF735F839E023
:1016300020492068884235D100BF1C48C06940F469
:1016400000301A49C8610846C06900F400300190B2
:1016500000BF00BF00BF0846806940F004008861F9
:101660000846806900F00400019000BF00BF04201C
:101670000290022003900320059002A90C48FFF776
:101680000BF80820029000200390049002A908485B
:10169000FFF702F8002211462620FFF71BFA26204A
:1016A000FFF708FA06B010BD0038014000100240F4
:1016B00000080140004400407047704700BFFEE74B
:1016C00010B50B480B4908604FF4E1304860002129
:1016D00008488160C16001610C2141610021816184
:1016E000C161FFF72DFF08B1FEF73BFF10BD000001
:1016F00000380140B400002010B50B480B490860C9
:101700004FF4E1304860002108488160C160016108
:101710000C21416100218161C161FFF711FF08B116
:10172000FEF71FFF10BD000000440040FC00002039
:1017300000BFFEE700BFFEE7704700B5024600F0BD
:1017400029F800BD08B508490968C9084FF47A723C
:10175000B1FBF2F14143009100BF00BF00994A1E66
:1017600000920029F9D108BD0C00002010B54FF4FB
:1017700000410248FFF720F910BD0000000C0140B5
:1017800010B501210148FFF717F910BD000801400D
:10179000704700000349086800E0C06C0028FCD1D5
:1017A000704700001000002070B50346A2B1184633
:1017B0000C4600BF14F8016B00F8016B3EB902E063
:1017C000002500F8015B551E2A1EF9D102E0551EC6
:1017D0002A1EEFD100BF00BF184670BD10B5FFF73D
:1017E000F9F810BD00B58FB0282105A8FEF7ECFC74
:1017F00014216846FEF7E8FC0120059000040690DD
:10180000002007900120099002200C90C1030D9147
:101810004FF4E0110E9105A8FFF7D2FA08B1FEF7D8
:10182000A0FE0F20009002200190002002904FF4B3
:10183000806003900020049002216846FFF79CF925
:1018400008B1FEF78EFE0FB000BD704770B50546BB
:101850006C6A0020E085E0842046FFF7FEFC70BD46
:1018600000BF00BF02680C3252E8002F22F49071D2
:1018700002680C3242E80013002BF3D100BF00BF16
:1018800000BF0268143252E8002F22F00101026802
:10189000143242E80013002BF3D100BF016B012981
:1018A0000ED100BF00BF02680C3252E8002F22F0B8
:1018B000100102680C3242E80013002BF3D100BF84
:1018C000202180F8421000210163704710B50446C2
:1018D0002068C06820F040002168C860202084F89B
:1018E00041002046FFF7E9FE002010BDF8B5044690
:1018F00094F84200222875D1A068B0F5805F0CD121
:10190000206950B90025A66A20684068C0F3080025
:101910003080A06A801CA06215E0A56A0026A0683D
:10192000B0F5805F03D0A06828B9206918B9206895
:101930004068287004E02068406800F07F0028704C
:10194000A06A401CA062E08D401E80B2E0850028A5
:1019500046D12068C06820F020002168C860206857
:10196000C06820F480702168C8602068406920F059
:10197000010021684861202084F842000020606353
:10198000206B012826D10020206300BF00BF216802
:101990000C3151E8001F21F0100021680C3141E8A2
:1019A0000002002AF3D100BF2068006800F0100098
:1019B00010280AD100BF0020009020680068009025
:1019C00020684068009000BF00BFA18D2046FFF74F
:1019D00043FC02E02046FFF76FFE0020F8BD01E067
:1019E0000020FBE70220F9E770B504462168096989
:1019F00021F44051E2681143226811612269A16813
:101A00001143626941EA02052168C96841F20C622A
:101A1000914329432268D1602168496921F44071CA
:101A2000A2691143226851612D4A2168914202D175
:101A3000FFF77EF901E0FFF76BF900EBC00101EB66
:101A4000001162689200B1FBF2F100EBC00202EB00
:101A5000001263689B00B2FBF3F26423B2FBF3F263
:101A600002EBC20303EB0212A1EB8201322202EB72
:101A700001116422B1FBF2F101F0F00100EBC002B0
:101A800002EB001263689B00B2FBF3F26423B2FB2B
:101A9000F3F201EB021200EBC00101EB00116368ED
:101AA0009B00B1FBF3F100EBC00303EB001366688E
:101AB000B600B3FBF6F36426B3FBF6F303EBC30601
:101AC00006EB0313A1EB8301322303EB0111642323
:101AD000B1FBF3F101F00F0111442268916070BD78
:101AE00000380140014691F84100212828D188683A
:101AF000B0F5805F0BD1086948B90A6A1088C0F355
:101B000008000B685860086A801C086205E00B6AD0
:101B1000581C086218780B685860C88C401E80B248
:101B2000C88458B90868C06820F080000B68D86085
:101B30000868C06840F040000B68D860002070471B
:101B40000220FCE710B50248FFF788FB10BD00003B
:101B5000FC00002000BFFEE702480068C0F302203E
:101B6000704700000CED00E010B5002804DB0A0708
:101B7000130E054A135406E00A07140E034A00F038
:101B80000F031B1FD45410BD00E400E018ED00E06B
:101B900010B5FEF72BFFFFF725FE00F003F800F06D
:101BA00041F810BD00B585B000200190029003906F
:101BB000049000BF1848806940F00400164988610D
:101BC0000846806900F00400009000BF00BF00BF1D
:101BD0000846806940F0080088610846806900F086
:101BE0000800009000BF00BF4FF4004001900020AB
:101BF00002900220039001A90848FEF74DFD012044
:101C00000190002002900120039001A90448FEF7F2
:101C100043FD05B000BD000000100240000C014073
:101C20000008014000B585B000BF1448806940F04D
:101C30000400124988610846806900F004000090A1
:101C400000BF00BF012000F01DF8022000F01AF8CC
:101C50000120029000200390032004908020019036
:101C600001A90748FEF718FD4FF48070019001A903
:101C70000348FEF711FD05B000BD00000010024052
:101C800000080140411EC8B218B98021044A116001
:101C900004E0012802D10102014A116070470000EE
:101CA00010080140012806D10749096881F0800128
:101CB000054A116007E0022805D10349096881F44B
:101CC0008071014A116070470C080140FFF760FF06
:101CD000FFF7F6FCFFF710FD00230E4A0E490FA098
:101CE000FEF7FFFA01230F4A0F4910A0FEF7F9FA99
:101CF000104A01210848FEF7E1FA0F4A01210A487B
:101D0000FEF7DCFA04E0FEF71DFC1420FEF7B0FC41
:101D1000F9E700006D170008140000204275747484
:101D20006F6E3100811700086400002042757474E2
:101D30006F6E3200A5020008B1020008020304051C
:101D4000060708090A0B0C0D0E0F10100102000007
:101D5000000000000000010203040607080900005B
:101D60000000010203040000881D0008000000209C
:101D700014000000280100089C1D00081400002029
:101D8000940700004401000800000000100000005B
:0C1D9000010000000024F400000000002E
:04000005080000ED02
:00000001FF
